:100F7E00003F0006005B004F0066006D007D00071D
:100F8E00007F006F0077007C0039005E00790071F1
:020F9E00000051
:100E3B004E00120000000000000000000000000047
:100E4B0000500032003F003700000000000000009F
:100E5B0000000000500020003F00710071000000F6
:100E6B0000000000000000420044000048000000A9
:100E7B000000000000000042004200004200300071
:100E8B000042001000004800560000000000000067
:0C0E9B00004800080000000000000000FB
:050D13007B01E4FFFE7E
:100D1800900004120353643C45F07017EF4E600ACC
:100D2800900002E475F0011203C3900004E4F5F0AA
:100D380012042F900002120353643C45F07014EF24
:100D48004E6007E475F00112038B900002E4F5F0A1
:100D580012042F120328641845F07005F5F01204E8
:100D680010900004120353D3943CE5F09400400A19
:100D7800900004E475F03B12042F90000212035314
:100D8800D3943CE5F09400400A900002E475F03BEF
:100D980012042F120328D39418E5F094004007E4B6
:070DA80075F0171204102280
:040FB0007F207E4ED2
:0B0FB400EF1FAC0670011E4C70F6220F
:10059600900000E0FAA3E0FB7C007D0AFFAE0212A9
:1005A60002BDEF25E0FFEE33FE747E2FF582740F59
:1005B6003EF583E493FF74019390005ECFF0A3EFC2
:1005C600F07C007D0AAF03AE021202BDED25E0FF0E
:1005D600EC33FE747E2FF582740F3EF583E493FFB1
:1005E600740193900060CFF0A3EFF0A3E4F0A3743E
:1005F60040F0900002E0FAA3E0FB7C007D0AFFAE2B
:10060600021202BDEF25E0FFEE33FE747E2FF58267
:10061600740F3EF583E493FF740193900064CFF06A
:10062600A3EFF07C007D0AAF03AE021202BDED25FA
:10063600E0FFEC33FE747E2FF582740F3EF583E403
:1006460093FF740193900066CFF0A3EFF0A3E4F05C
:10065600A37440F0900004E0FAA3E0FB7C007D0A5E
:10066600FFAE021202BDEF25E0FFEE33FE747E2FD1
:10067600F582740F3EF583E493FF74019390006A4C
:10068600CFF0A3EFF07C007D0AAF03AE021202BDED
:10069600ED25E0FFEC33FE747E2FF582740F3EF5F8
:1006A60083E493FF74019390006CCFF0A3EFF022E4
:1006B600900042E0FAA3E0FB7C007D0AFFAE021246
:1006C60002BDEF25E0FFEE33FE747E2FF582740F38
:1006D6003EF583E493FF74019390006ECFF0A3EF91
:1006E600F07C007D0AAF03AE021202BDED25E0FFED
:1006F600EC33FE747E2FF582740F3EF583E493FF90
:10070600740193900070CFF0A3EFF0A3E4F0A3740C
:1007160040F0900030E0FAA3E0FB7C007D0AFFAEDB
:10072600021202BDEF25E0FFEE33FE747E2FF58246
:10073600740F3EF583E493FF740193900074CFF039
:10074600A3EFF07C007D0AAF03AE021202BDED25D9
:10075600E0FFEC33FE747E2FF582740F3EF583E4E2
:1007660093FF740193900076CFF0A3EFF0A3E4F02B
:10077600A37440F0900010E0FAA3E0FB7C007D0A31
:10078600FFAE021202BDEF25E0FFEE33FE747E2FB0
:10079600F582740F3EF583E493FF74019390007A1B
:1007A600CFF0A3EFF07C007D0AAF03AE021202BDCC
:1007B600ED25E0FFEC33FE747E2FF582740F3EF5D7
:1007C60083E493FF74019390007CCFF0A3EFF022B3
:1007D600900056E0FAA3E0FB7C007D0AFFAE021211
:1007E60002BDEF25E0FFEE33FE747E2FF582740F17
:1007F6003EF583E493FF74019390007ECFF0A3EF60
:10080600F07C007D0AAF03AE021202BDED25E0FFCB
:10081600EC33FE747E2FF582740F3EF583E493FF6E
:10082600740193900080CFF0A3EFF0A3E4F0A374DB
:1008360040F0900058E0FAA3E0FB7C007D0AFFAE92
:10084600021202BDEF25E0FFEE33FE747E2FF58225
:10085600740F3EF583E493FF740193900084CFF008
:10086600A3EFF07C007D0AAF03AE021202BDED25B8
:10087600E0FFEC33FE747E2FF582740F3EF583E4C1
:1008860093FF740193900086CFF0A3EFF0A3E4F0FA
:10089600A37440F090005AE0FAA3E0FB7C007D0AC6
:1008A600FFAE021202BDEF25E0FFEE33FE747E2F8F
:1008B600F582740F3EF583E493FF74019390008AEA
:1008C600CFF0A3EFF07C007D0AAF03AE021202BDAB
:1008D600ED25E0FFEC33FE747E2FF582740F3EF5B6
:1008E60083E493FF74019390008CCFF0A3EFF02282
:1008F600900008E0FAA3E0FB7C007D0AFFAE02123E
:1009060002BDEF25E0FFEE33FE747E2FF582740FF5
:100916003EF583E493FF740193900046CFF0A3EF76
:10092600F07C007D0AAF03AE021202BDED25E0FFAA
:10093600EC33FE747E2FF582740F3EF583E493FF4D
:10094600740193900048CFF0A3EFF0A3E4F0A374F2
:1009560040F090000AE0FAA3E0FB7C007D0AFFAEBF
:10096600021202BDEF25E0FFEE33FE747E2FF58204
:10097600740F3EF583E493FF74019390004CCFF01F
:10098600A3EFF07C007D0AAF03AE021202BDED2597
:10099600E0FFEC33FE747E2FF582740F3EF583E4A0
:1009A60093FF74019390004ECFF0A3EFF0A3E4F011
:1009B600A37440F090000CE0FAA3E0FB7C007D0AF3
:1009C600FFAE021202BDEF25E0FFEE33FE747E2F6E
:1009D600F582740F3EF583E493FF74019390005201
:1009E600CFF0A3EFF07C007D0AAF03AE021202BD8A
:1009F600ED25E0FFEC33FE747E2FF582740F3EF595
:100A060083E493FF740193900054CFF0A3EFF02298
:0C0BB900120F491206B67B017A00796E1B
:0B0BC500900096EBF0A3EAF0A3E9F02B
:100BD000E4A3F0900099E0FFC394087480948040EF
:100BE00003020C65EFB40800504D900BF1F8282873
:100BF00073020C09020C0D020C15020C19020C21D7
:100C0000020C25020C2D020C31D2A28002C2A2D20B
:100C1000A3D2A48022D2A28002C2A2C2A3D2A48064
:100C200016D2A28002C2A2D2A3C2A4800AD2A280FB
:100C300002C2A2C2A3C2A4900096E0FBA3E0FAA362
:100C4000E0F9A3E075F002A4F58285F08312035366
:100C5000F5807F647E00120FB4E4F580900099E087
:050C600004F0020BD3BB
:010C6500226C
:100EFD0020B10F7F647E00120FB420B1057E007FFC
:100F0D00012220B00F7F647E00120FB420B0057E49
:100F1D00007F022220B20F7F647E00120FB420B238
:100F2D00057E007F032220B30F7F647E00120FB475
:0C0F3D0020B3087E007F0422E4FEFF22A7
:100F4900C3900031E0943C900030E094004025E4E7
:100F5900F0A3F0900043E004F07006900042E00432
:100F6900F0C3900043E0943C900042E094004004B8
:050F7900E4F0A3F022EA
:100AFB007A007900120D131205967B017A00795E4C
:100B0B00120BC5120EFD900044EEF0A3EFF0640142
:100B1B004E7020120FB090001BE025E0FF90001AE2
:100B2B00E033FE74002FF58274003EF583E475F01C
:100B3B0001802B900044E0FAA3E0FB64024A70238F
:100B4B00120FB090001BE025E0FF90001AE033FE7F
:100B5B0074002FF58274003EF58374FFF5F01203D9
:100B6B0012808DEB64034A700D120FB090001AE4E3
:100B7B00F0A37402F022900044E07004A3E064043C
:100B8B006003020AFB120FB090001AE07002A3E0A0
:100B9B00700B90001AF0A37402F0020AFB90001B7A
:0E0BAB00E024FFF090001AE034FFF0020AFB95
:10000E00E490005AF0A3F0900058F0A3F090005640
:10001E00F0A3F0C2A8E4900010F0A3F0900030F02E
:10002E00A3F0120BBC120EFD900044EEF0A3EFF005
:10003E0064014E6003020293020105120BB9900097
:10004E0042E0FEA3E0FF900056E06E7003A3E06F67
:10005E007071900030E0FEA3E0FF900058E06E70EB
:10006E0003A3E06F705D90001CE07004A3E06401D8
:08007E007051900014F0A3F092
:10008600900094E4F0A37464F07B017A00797E1208
:100096000BC5900094E07002A3E06019900095E013
:1000A60024FFF0900094E034FFF0B2957F647E0068
:1000B600120FB480DD120EFD900044EEF0A3EFF0B7
:0B00C60064014E70BB120FB00200235B
:1000D100120EFD900044EEF0A3EFF064014E6003B8
:1000E1000200497F107E27120FB4E4900014F0A3A0
:1000F100F0120BB9120EFD900044EEF0A3EFF06484
:10010100014E70127F107E27120FB4900014E4F09C
:10011100A304F0020049900044E0FAA3E0FB640369
:100121004A70030202A0EB64024A7019120FB0E494
:10013100900030F0A3F0900042F0A3F0900010F096
:10014100A3F0020023900044E07004A3E064047073
:10015100A00202AE7A007956120D131207D67B0166
:100161007A00797E120BC5120EFD900044EEF0A3C9
:10017100EFF064014E7020120FB0900013E025E003
:10018100FF900012E033FE74562FF58274003EF5A5
:1001910083E475F001802B900044E0FAA3E0FB6456
:1001A100024A7023120FB0900013E025E0FF900087
:1001B10012E033FE74562FF58274003EF58374FF0E
:1001C100F5F0120312808DEB64034A700F120FB029
:1001D100900012E4F0A37402F00200F2900044E0F7
:1001E1007004A3E064046003020155120FB0900093
:1001F10012E07002A3E0600302028290001CE07032
:1002010002A3E070327B017A007920120BC5120E35
:10021100FD900044EEF0A3EFF064014E700B120F5D
:10022100B090001CE4F0A304F0900044E07004A33B
:10023100E0640470C6803B90001CE07004A3E0649D
:100241000170B87B017A007932120BC5120EFD9054
:100251000044EEF0A3EFF064014E700A120FB0E417
:1002610090001CF0A3F0900044E07004A3E064044B
:100271007089120FB0900012E4F0A37402F0020131
:1002810055900013E024FFF0900012E034FFF002DB
:100291000155900044E0FAA3E0FB64034A700512A3
:1002A1000FB0800EEB64044A6003020023120FB00A
:0B02B10080C3D2A8E490001CF0A3F072
:0102BC00221F
:10045C007B017A007908E4FFFE120D181208F67B76
:10046C00017A007946120BC5120EFD900044EEF095
:10047C00A3EFF064014E7020120FB0900017E0252E
:10048C00E0FF900016E033FE74082FF58274003EF6
:10049C00F583E475F001802B900044E0FAA3E0FBB7
:1004AC0064024A7023120FB0900017E025E0FF9011
:1004BC000016E033FE74082FF58274003EF5837449
:1004CC00FFF5F01203128088EB64034A7006120FDA
:1004DC00B0D2A822900044E07004A3E0640460034E
:1004EC0002045C120FB0900016E07002A3E06003EF
:1004FC00020585900018E07002A3E070327B017A4F
:10050C00007920120BC5120EFD900044EEF0A3EF03
:10051C00F064014E700B120FB0900018E4F0A304BD
:10052C00F0900044E07004A3E0640470C6803B903B
:10053C000018E07004A3E0640170B87B017A0079C4
:10054C0032120BC5120EFD900044EEF0A3EFF064D6
:10055C00014E700A120FB0E4900018F0A3F0900056
:10056C0044E07004A3E064047089120FB09000168C
:10057C00E4F0A37402F002045C900017E024FFF096
:0A058C00900016E034FFF002045C5A
:070FBF00D288D2A8D2AF22B4
:100FA000758901758CDC758AD8D2AFD2A9D28C2212
:100A1600120FBF120FA01205967B017A00795E12A3
:100A26000BC5120EFD900044EEF0A3EFF064014EEC
:100A3600700D120FB0E4900014F0A3F012000E90A7
:100A46000044E07004A3E064027011120FB0C2A863
:100A5600900016E4F0A37402F012045C900008E023
:100A6600FEA3E0FF900000E0B506ABA3E0B507A645
:100A760090000AE0FEA3E0FF900002E06E7003A380
:100A8600E06F709290000CE0FEA3E0FF900004E09F
:100A96006E7003A3E06F6003020A1C900018E070FA
:0A0AA60004A3E064016003020A1CCF
:100AB000900092E4F0A37464F07B017A007946120E
:100AC0000BC5900092E07002A3E06019900093E0E3
:100AD00024FFF0900092E034FFF0B2957F647E0036
:100AE000120FB480DD120EFD900044EEF0A3EFF083
:0B0AF00064014E70BB120FB0020A1C24
:03000300020EA842
:100EA800C0E0C0F0C083C082C0D075D000C000C010
:100EB80001C002C003C004C005C006C0077FE87EA9
:100EC80003120FB420B211120FB090001AE4F0A36D
:100ED8007402F0120AFB8002D2A9D007D006D0050E
:100EE800D004D003D002D001D000D0D0D082D0839B
:050EF800D0F0D0E03253
:03000B00020C667E
:100C6600C0E0C0F0C083C082C0D075D000C000C054
:100C760001C002C003C006C007758CDC758AD89017
:100C86000007E004F07006900006E004F0C3900050
:100C960007E09464900006E09400401FE4F0A3F09F
:100CA600900005E004F07006900004E004F07B017B
:100CB6007A0079007F017E00120D18900014E07012
:100CC60004A3E06401702F900011E004F070069018
:100CD6000010E004F0C3900011E09464900010E06E
:100CE60094004012E4F0A3F0900031E004F07006A6
:100CF600900030E004F0D007D006D003D002D00137
:0D0D0600D000D0D0D082D083D0F0D0E03229
:03000000020DAF3F
:0C0DAF00787FE4F6D8FD758107020DF690
:1002BD00BC000BBE0029EF8DF084FFADF022E4CC25
:1002CD00F875F008EF2FFFEE33FEEC33FCEE9DECEE
:1002DD00984005FCEE9DFE0FD5F0E9E4CEFD22ED34
:1002ED00F8F5F0EE8420D21CFEADF075F008EF2F7E
:1002FD00FFED33FD4007985006D5F0F222C398FD6F
:05030D000FD5F0EA220B
:10031200C5F0F8A3E028F0C5F0F8E5821582700276
:060322001583E038F02213
:10032800BB010A89828A83E0F5F0A3E022500687A0
:10033800F009E71922BBFE07E3F5F009E319228962
:0B034800828A83E493F5F07401932295
:10035300BB0110E58229F582E5833AF583E0F5F0E8
:10036300A3E0225009E92582F886F008E622BBFEC5
:100373000AE92582F8E2F5F008E222E5832AF5830B
:08038300E993F5F0A3E99322D0
:10038B00BB010789828A83020312500B09C5F02730
:10039B00F7C5F01937F722BBFE0D09F8E325F0F38B
:1003AB00C5F019E338F322F889828A837401932507
:0803BB00F0C5F0F8E4933822CC
:1003C300BB010DC58229C582C5833AC583020312C9
:1003D3005011C58229F808E5F026F618F5F0E582F4
:1003E30036F622BBFE11C58229F808E225F0F5F0A6
:1003F300F218E23582F222F8E58229F582E5832AB2
:0D040300F58374019325F0F5F0E4933822A1
:10041000BB010A89828A83F0E5F0A3F0225006F737
:0F04200009A7F01922BBFE06F3E5F009F3192234
:10042F00F8BB0111E58229F582E5833AF583E8F0FF
:10043F00E5F0A3F0225009E92582C8F608A6F022BC
:0D044F00BBFE09E92582C8F2E5F008F222A3
:100DBB00020A16E493A3F8E493A34003F68001F22E
:100DCB0008DFF48029E493A3F85407240CC8C33339
:100DDB00C4540F4420C8834004F456800146F6DF08
:100DEB00E4800B0102040810204080900E3BE47E4F
:100DFB00019360BCA3FF543F30E509541FFEE493FD
:100E0B00A360010ECF54C025E060A840B8E493A3C3
:100E1B00FAE493A3F8E493A3C8C582C8CAC583CAEE
:100E2B00F0A3C8C582C8CAC583CADFE9DEE780BEA6
:010EA700004A
:00000001FF
